:100000008316FF2390008312F12B00308A0004082E
:10001000840A82070034023401340234003400348C
:080020000134043410342034D3
:1003620085348734053407343908A3002308A000F4
:100372000030242208008312851DC229051D0800B1
:10038200BF2905190800C229A5002508073E8400D7
:100392000520EF212508A4002408B8000800003039
:1003A200DD218312AF002F08B000043030020318A1
:1003B200B00130088F220800A100640083169C1847
:1003C200DE298312210883169B003F308312A0008E
:1003D200200883169C051C141A080800A1000708AF
:1003E200A0002008A2002108A0002008A30087196D
:1003F200A3093430A0002008A305CB30A0002008B8
:10040200A2052308A0002008A204220887000800F1
:100412008312851D182A051C102A0130112A00306A
:10042200A200A3012208A0002308A10008000518C9
:100432001C2A01301D2A0030A200A3012208A000BC
:100442002308A1000800A20083169C18252A831203
:10045200220883169B008312200883169A003F30DD
:100462008312A100210883169C0503108B1B031421
:100472008B131C1555309D00AA309D009C141C1135
:10048200031C08008B170800A4000830A1002108F3
:10049200A500A6012408A10007300310A10CFF3E0D
:1004A200031D4E2A2608A20022072104A3002308C6
:1004B200A6000310A40D20082602031C622A2008AD
:1004C200A6020130A502031D4B2A26080800851D3D
:1004D2006C2A0515702AFB30A00020088505FB3028
:1004E200A00020088316850502308312A200453041
:1004F200A100A930A000A00B7C2AA10B7C2AA20B90
:100502007C2A832A831605158312851D8D2AFB30CA
:10051200A00020088505080005150800AC00AD0103
:10052200AE01AD01AE0183122D083C3E840083135F
:10053200000884000008A6002608AB002D08363EFD
:1005420084000008A6002C08A70001300310A70DA4
:10055200FF3E031DA72A01302707A8002D08280700
:10056200840005202605A9002908AA002D08363E88
:1005720084000009A6002608AB052A08A600260862
:10058200AB042B08A6002D083C3E84000008840022
:10059200260880000130AD070318AE0A0030AE070E
:1005A2002E08803ADF0080305F02031DDA2A023013
:1005B2002D02031C942A83122C08C5212C08A600A4
:1005C2002608B900B5210800A401A5010730990049
:1005D200A601A70183122608363E840083138001F8
:1005E200A401A50183122408A00001300310A00D6C
:1005F200FF3E031DF72A01302007A100260821072C
:1006020084000520A2002608363E840022088313B7
:1006120080040130A4070318A50A0030A5072508A5
:10062200803ADF0080305F02031D192B0330240261
:10063200031CF32A01308312A6070318A70A00300D
:10064200A7072708803ADF0080305F02031D2B2BAB
:1006520002302602031CEB2A8312A601A701831291
:100662002608363E840083130008A0002008A30059
:1006720026083C3E84000008073A031D442B343010
:10068200A0002008A3040508050826083C3E8400B3
:100692000008840080012309A00026083A3E840055
:1006A20000088400200880000130A6070318A70A6A
:1006B2000030A7072708803ADF0080305F02031D61
:1006C200642B0230260203180800302BE522BC21DD
:1006D200D02109222008210403196A2B4130B200DB
:1006E200EE30B100B10B732BB20B732B0000092259
:1006F2002008210403196A2B3230B4000030B500FF
:10070200992B01303502F4300319340203189E2B61
:100712008230B200DD30B100B10B8D2BB20B8D2BCC
:10072200922B64308312B4070318B50A0030B50760
:10073200092220082104031D822B092220082104FA
:10074200031DD72B68226A2B03303502E8300319C8
:1007520034020318C12B8230B200DD30B100B10B7C
:10076200B02BB20BB02BB52B64308312B407031835
:10077200B50A0030B507092220082104031DA52B64
:100782000922200821040319D72BB401B501013035
:10079200B1003108B8070330B1003108A0003808B1
:1007A2004522B2003208B8003808C52109222008C3
:1007B2002104031DBC2B390838060319E22B380823
:1007C2008F2203308312B3008A30B2005530B10059
:1007D200B10BE92BB20BE92BB30BE92BF02B6A2BF4
:1007E200B121BA00B221BB00B321BC00B421BD00CB
:0C07F200B601B701B801B9018301672B03
:02400E00D4FFDD
:1042000000000000000000000000000000000000AE
:00000001FF
